{
    "contractName": "Voting",
    "abi": [
        {
            "inputs": [
                {
                    "internalType": "address",
                    "name": "target",
                    "type": "address"
                }
            ],
            "name": "GetVotes",
            "outputs": [
                {
                    "internalType": "uint256",
                    "name": "",
                    "type": "uint256"
                }
            ],
            "stateMutability": "view",
            "type": "function"
        },
        {
            "inputs": [],
            "name": "ResetVotes",
            "outputs": [],
            "stateMutability": "nonpayable",
            "type": "function"
        },
        {
            "inputs": [
                {
                    "internalType": "address",
                    "name": "target",
                    "type": "address"
                }
            ],
            "name": "Vote",
            "outputs": [],
            "stateMutability": "nonpayable",
            "type": "function"
        },
        {
            "inputs": [
                {
                    "internalType": "address",
                    "name": "",
                    "type": "address"
                }
            ],
            "name": "Votes",
            "outputs": [
                {
                    "internalType": "uint256",
                    "name": "",
                    "type": "uint256"
                }
            ],
            "stateMutability": "view",
            "type": "function"
        },
        {
            "inputs": [
                {
                    "internalType": "uint256",
                    "name": "",
                    "type": "uint256"
                }
            ],
            "name": "keyList",
            "outputs": [
                {
                    "internalType": "address",
                    "name": "",
                    "type": "address"
                }
            ],
            "stateMutability": "view",
            "type": "function"
        }
    ],
    "bytecode": "608080604052346015576102ea908161001a8239f35b5f80fdfe6080806040526004361015610012575f80fd5b5f3560e01c9081630f0e1e0714610250575080631ce05c451461020e578063246ff39b146101605780632db6e15d146101255763f5b0834614610053575f80fd5b34610121576020366003190112610121576004356001600160a01b0381169081900361012157805f525f60205260405f2054156100ba575b5f525f60205260405f20805490600182018092116100a65755005b634e487b7160e01b5f52601160045260245ffd5b6001546801000000000000000081101561010d578060016100de9201600155610288565b81546001600160a01b0360039290921b91821b19169083901b1790555f8181526020819052604081205561008b565b634e487b7160e01b5f52604160045260245ffd5b5f80fd5b34610121576020366003190112610121576004356001600160a01b03811690819003610121575f525f602052602060405f2054604051908152f35b34610121575f366003190112610121575f5b6001548110156101a85780610188600192610288565b838060a01b0391549060031b1c165f525f6020525f604081205501610172565b6001545f600155806101b657005b7fb10e2d527612073b26eecdfd717e6a320cf44b4afac2b0732d9fcbe2b7fa0cf6017fb10e2d527612073b26eecdfd717e6a320cf44b4afac2b0732d9fcbe2b7fa0cf65b81811061020357005b5f81556001016101fa565b346101215760203660031901126101215760043560015481101561012157610237602091610288565b905460405160039290921b1c6001600160a01b03168152f35b34610121576020366003190112610121576004356001600160a01b0381169190829003610121576020915f525f825260405f20548152f35b6001548110156102a05760015f5260205f2001905f90565b634e487b7160e01b5f52603260045260245ffdfea26469706673582212204ae79d0f453d4e295bca9699cfcb7c0c20bc5a34d41fa706023459b5297e845864736f6c634300081e0033",
    "sourcePath": "c:/Go/web3learn/solidy/task1.sol",
    "compiler": {
        "name": "solc",
        "version": "0.8.30+commit.73712a01"
    },
    "functionHashes": {
        "GetVotes(address)": "2db6e15d",
        "ResetVotes()": "246ff39b",
        "Vote(address)": "f5b08346",
        "Votes(address)": "0f0e1e07",
        "keyList(uint256)": "1ce05c45"
    },
    "gasEstimates": {
        "creation": {
            "codeDepositCost": "149200",
            "executionCost": "202",
            "totalCost": "149402"
        },
        "external": {
            "GetVotes(address)": "2432",
            "ResetVotes()": "infinite",
            "Vote(address)": "82545",
            "Votes(address)": "2361",
            "keyList(uint256)": "6655"
        }
    }
}